:020000040800F2
:1000000000000120E15D0008550D0008570D0008B3
:10001000590D00085B0D00085D0D00080000000090
:100020000000000000000000000000005F0D00085C
:10003000610D000800000000630D0008650D000858
:10004000295E0008295E0008295E0008295E000874
:10005000295E0008295E0008295E0008295E000864
:10006000295E0008295E0008295E0008295E000854
:10007000295E0008295E0008295E0008550E000868
:10008000650E0008295E0008295E0008295E000848
:10009000CD0D0008295E0008295E0008295E0008D1
:1000A000295E0008295E0008295E0008295E000814
:1000B000295E0008295E0008295E0008295E000804
:1000C000295E0008295E0008295E0008295E0008F4
:1000D000295E0008DD0D0008190E0008295E0008E1
:1000E000295E0008295E0008295E0008295E0008D4
:1000F000295E0008295E0008295E0008295E0008C4
:10010000295E0008295E0008295E0008295E0008B3
:10011000295E0008295E0008295E0008295E0008A3
:10012000295E0008295E0008295E0008295E000893
:1001300000000000000000000000000000000000BF
:1001400000000000000000000000000000000000AF
:10015000000000000000000000000000000000009F
:10016000000000000000000000000000000000008F
:10017000000000000000000000000000000000007F
:10018000000000000000000000000000000000006F
:10019000000000000000000000000000000000005F
:1001A000000000000000000000000000000000004F
:1001B000000000000000000000000000000000003F
:1001C000000000000000000000000000000000002F
:1001D000000000000000000000000000000000001F
:0401E0005FF8E0F1F3
:1001E80010B5054C237833B9044B13B10448AFF369
:1001F80000800123237010BD5C0B0020000000006C
:10020800548A000808B5034B1BB103490348AFF3F0
:10021800008008BD00000000600B0020548A000820
:10022800034613F8012B002AFBD1181A013870472E
:1002380081F0004102E000BF83F0004330B54FEA8F
:1002480041044FEA430594EA050F08BF90EA020FFC
:100258001FBF54EA000C55EA020C7FEA645C7FEA8F
:10026800655C00F0E2804FEA5454D4EB5555B8BFB2
:100278006D420CDD2C4480EA020281EA030382EA23
:10028800000083EA010180EA020281EA0303362DB5
:1002980088BF30BD11F0004F4FEA01314FF4801C88
:1002A8004CEA113102D0404261EB410113F0004F9A
:1002B8004FEA03334CEA133302D0524263EB430351
:1002C80094EA050F00F0A780A4F10104D5F1200EEF
:1002D8000DDB02FA0EFC22FA05F2801841F100014A
:1002E80003FA0EF2801843FA05F359410EE0A5F11E
:1002F80020050EF1200E012A03FA0EFC28BF4CF04F
:10030800020C43FA05F3C01851EBE37101F0004504
:1003180007D54FF0000EDCF1000C7EEB00006EEB11
:100328000101B1F5801F1BD3B1F5001F0CD349089B
:100338005FEA30004FEA3C0C04F101044FEA4452F2
:1003480012F5800F80F09A80BCF1004F08BF5FEA79
:10035800500C50F1000041EB045141EA050130BD59
:100368005FEA4C0C404141EB0101013C28BFB1F56B
:10037800801FE9D291F0000F04BF01460020B1FAB6
:1003880081F308BF2033A3F10B03B3F120020CDA89
:100398000C3208DD02F1140CC2F10C0201FA0CF067
:1003A80021FA02F10CE002F11402D8BFC2F1200CCC
:1003B80001FA02F120FA0CFCDCBF41EA0C01904082
:1003C800E41AA2BF01EB0451294330BD6FEA0404CB
:1003D8001F3C1CDA0C340EDC04F11404C4F12002B6
:1003E80020FA04F001FA02F340EA030021FA04F3C8
:1003F80045EA030130BDC4F10C04C4F1200220FA1F
:1004080002F001FA04F340EA0300294630BD21FA5C
:1004180004F0294630BD94F0000F83F4801306BF22
:1004280081F480110134013D4EE77FEA645C18BF16
:100438007FEA655C29D094EA050F08BF90EA020FAD
:1004480005D054EA000C04BF1946104630BD91EAA5
:10045800030F1EBF0021002030BD5FEA545C05D1A8
:100468004000494128BF41F0004130BD14F58004E7
:100478003CBF01F5801130BD01F0004545F0FE415B
:1004880041F470014FF0000030BD7FEA645C1ABF90
:10049800194610467FEA655C1CBF0B46024650EAC7
:1004A800013406BF52EA033591EA030F41F40021F3
:1004B80030BD00BF90F0000F04BF0021704730B579
:1004C8004FF4806404F132044FF000054FF000014E
:1004D80050E700BF90F0000F04BF0021704730B50F
:1004E8004FF4806404F1320410F0004548BF4042E4
:1004F8004FF000013EE700BF42004FEAE2014FEA39
:1005080031014FEA02701FBF12F07F4393F07F4F13
:1005180081F06051704732F07F4208BF704793F016
:100528007F4F04BF41F40021704730B54FF4607429
:1005380001F0004521F000411CE700BF50EA01022C
:1005480008BF704730B54FF000050AE050EA0102D5
:1005580008BF704730B511F0004502D5404261EB45
:1005680041014FF4806404F132045FEA915C3FF486
:10057800D8AE4FF003025FEADC0C18BF03325FEA23
:10058800DC0C18BF033202EBDC02C2F1200300FAD4
:1005980003FC20FA02F001FA03FE40EA0E0021FAF9
:1005A80002F11444BDE600BF70B54FF0FF0C4CF4E7
:1005B800E06C1CEA11541DBF1CEA135594EA0C0F99
:1005C80095EA0C0F00F0DEF82C4481EA030621EAD4
:1005D8004C5123EA4C5350EA013518BF52EA03350F
:1005E80041F4801143F4801338D0A0FB02CE4FF0C1
:1005F8000005E1FB02E506F00042E0FB03E54FF0F1
:100608000006E1FB03569CF0000F18BF4EF0010EE8
:10061800A4F1FF04B6F5007F64F5407404D25FEAE4
:100628004E0E6D4146EB060642EAC62141EA555197
:100638004FEAC52040EA5E504FEACE2EB4F1FD0CD9
:1006480088BFBCF5E06F1ED8BEF1004F08BF5FEA57
:10065800500E50F1000041EB045170BD06F0004609
:1006680046EA010140EA020081EA0301B4EB5C04B6
:10067800C2BFD4EB0C0541EA045170BD41F48011AE
:100688004FF0000E013C00F3AB8014F1360FDEBFD3
:10069800002001F0004170BDC4F10004203C35DAAF
:1006A8000C341BDC04F11404C4F1200500FA05F332
:1006B80020FA04F001FA05F240EA020001F00042D3
:1006C80021F0004110EBD37021FA04F642EB060149
:1006D8005EEA430E08BF20EAD37070BDC4F10C0473
:1006E800C4F1200500FA04F320FA05F001FA04F237
:1006F80040EA020001F0004110EBD37041F1000123
:100708005EEA430E08BF20EAD37070BDC4F120052D
:1007180000FA05F24EEA020E20FA04F301FA05F295
:1007280043EA020321FA04F001F0004121FA04F23D
:1007380020EA020000EBD3705EEA430E08BF20EA0D
:10074800D37070BD94F0000F0FD101F00046400047
:1007580041EB010111F4801F08BF013CF7D041EAC9
:10076800060195F0000F18BF704703F000465200CD
:1007780043EB030313F4801F08BF013DF7D043EA9E
:100788000603704794EA0C0F0CEA135518BF95EA54
:100798000C0F0CD050EA410618BF52EA4306D1D1DB
:1007A80081EA030101F000414FF0000070BD50EAFA
:1007B800410606BF1046194652EA430619D094EA84
:1007C8000C0F02D150EA013613D195EA0C0F05D16E
:1007D80052EA03361CBF104619460AD181EA0301C2
:1007E80001F0004141F0FE4141F470014FF000007A
:1007F80070BD41F0FE4141F4780170BD70B54FF015
:10080800FF0C4CF4E06C1CEA11541DBF1CEA135594
:1008180094EA0C0F95EA0C0F00F0A7F8A4EB050476
:1008280081EA030E52EA03354FEA013100F088806D
:100838004FEA03334FF0805545EA131343EA126336
:100848004FEA022245EA111545EA10654FEA0026EB
:100858000EF000419D4208BF964244F1FD0404F5A4
:10086800407402D25B084FEA3202B61A65EB030500
:100878005B084FEA32024FF480104FF4002CB6EBBD
:10088800020E75EB030E22BFB61A754640EA0C003D
:100898005B084FEA3202B6EB020E75EB030E22BF7D
:1008A800B61A754640EA5C005B084FEA3202B6EBBE
:1008B800020E75EB030E22BFB61A754640EA9C007D
:1008C8005B084FEA3202B6EB020E75EB030E22BF4D
:1008D800B61A754640EADC0055EA060E18D04FEA0B
:1008E800051545EA16754FEA06164FEAC30343EAAB
:1008F80052734FEAC2025FEA1C1CC0D111F4801F78
:100908000BD141EA00014FF000004FF0004CB6E770
:1009180011F4801F04BF01430020B4F1FD0C88BF0F
:10092800BCF5E06F3FF6AFAEB5EB030C04BFB6EB1A
:10093800020C5FEA500C50F1000041EB045170BD0D
:100948000EF0004E4EEA113114EB5C04C2BFD4EB3A
:100958000C0541EA045170BD41F480114FF0000EBE
:10096800013C90E645EA060E8DE60CEA135594EA3A
:100978000C0F08BF95EA0C0F3FF43BAF94EA0C0F3D
:100988000AD150EA01347FF434AF95EA0C0F7FF4B2
:1009980025AF104619462CE795EA0C0F06D152EA06
:1009A80003353FF4FDAE1046194622E750EA4106EA
:1009B80018BF52EA43067FF4C5AE50EA41047FF4FB
:1009C8000DAF52EA43057FF4EBAE12E74FF0FF3C60
:1009D80006E000BF4FF0010C02E000BF4FF0010C31
:1009E8004DF804CD4FEA410C7FEA6C5C4FEA430CAA
:1009F80018BF7FEA6C5C1BD001B050EA410C0CBFF9
:100A080052EA430C91EA030F02BF90EA020F00205A
:100A1800704710F1000F91EA030F58BF994208BFC1
:100A280090422CBFD8176FEAE37040F0010070477E
:100A38004FEA410C7FEA6C5C02D150EA013C07D1D5
:100A48004FEA430C7FEA6C5CD6D152EA033CD3D020
:100A58005DF8040B704700BF8446104662468C461A
:100A68001946634600E000BF01B5FFF7B7FF00284D
:100A780048BF10F1000F01BD4DF808EDFFF7F4FF76
:100A88000CBF012000205DF808FB00BF4DF808ED01
:100A9800FFF7EAFF34BF012000205DF808FB00BF24
:100AA8004DF808EDFFF7E0FF94BF012000205DF846
:100AB80008FB00BF4DF808EDFFF7CEFF94BF0120FB
:100AC80000205DF808FB00BF4DF808EDFFF7C4FFF4
:100AD80034BF012000205DF808FB00BF4FEA410C3D
:100AE8007FEA6C5C02D150EA013C0AD14FEA430C20
:100AF8007FEA6C5C02D152EA033C02D14FF000005D
:100B080070474FF0010070474FEA410212F500129A
:100B180015D211D56FF47873B3EB625212D94FEA3C
:100B2800C12343F0004343EA505311F0004F23FA26
:100B380002F018BF404270474FF00000704750EA7B
:100B4800013005D111F0004008BF6FF00040704738
:100B58004FF00000704700BF30B597B02822002141
:100B68000CA805F089F900240794089409940A94BC
:100B78000B940194029403940494059406940D2311
:100B88000C934FF480320D9201230F93109312931C
:100B98000225139514924FF4E01315930CA801F055
:100BA8000FFD0F230793089509944FF480630A9368
:100BB8000B94294607A801F043FF132301934FF430
:100BC800807302934FF440430393069401A802F004
:100BD80013F817B030BD000008B500F0B5F9FFF7FD
:100BE800BBFF00F05BF804F0E3FF4FF47A6000F01D
:100BF800CFF94FF41651194804F0B2FB07E000F0A2
:100C0800C1F9174B1B68C01AB0F57A7F14D804F0E5
:100C1800ADFB00F0B7F9134B1B68C01AB0F57A7F2B
:100C2800EDD9642302220021012004F0F7FB00F033
:100C3800A9F90C4B1860E2E70B4B198951B90B4B1A
:100C48005A8819880A4805F07FFD00F09BF9044B83
:100C58001860DCE7074805F077FDF6E778270020FD
:100C6800780B00207C0B002088240020880B0020B3
:100C7800708A0008888A0008704708B5431E012B4F
:100C880005D80846114605F091F8C0B208BD05F030
:100C9800C9F8092303604FF0FF30F7E72DE9F04169
:100CA80088B000240494059406940794234B9A6909
:100CB80042F020029A619A6902F020020192019A98
:100CC8009A6942F004029A619A6902F00402029257
:100CD800029A9A6942F008029A619B6903F0080334
:100CE8000393039BDFF8588022464FF400414046A7
:100CF80002F02EF9134D22460421284602F028F965
:100D0800224640F6FF71104802F022F94FF40043E2
:100D180004930127059706940226079604A94046DE
:100D280001F0F6FF0423049305970694079604A997
:100D3800284601F0EDFF08B0BDE8F0810010024040
:100D48000008014000140140001001407047FEE710
:100D5800FEE7FEE7FEE770477047704708B5154B9A
:100D6800B3F80434012B17D0124BB3F804341BB179
:100D7800013B104AA2F804340F4BB3F80434012B9A
:100D880011D00D4BB3F804341BB1013B0A4AA2F849
:100D9800043400F0EBF808BD064B01221A7007482E
:100DA800836A9847E0E7044B01221A700448836A73
:100DB8009847E6E71C01002024050020AC26002007
:100DC800F026002008B5024800F069FE08BD00BF03
:100DD800C02B002000B583B00A4B1B6813F0100F1E
:100DE8000AD0084B1A680192019A5B680193019B2B
:100DF800054B0222A3F80424044801F035FA03B095
:100E08005DF804FB003801401C0100203427002055
:100E180000B583B00A4B1B6813F0100F0AD0084BBB
:100E28001A680192019A5B680193019B054B0222A3
:100E3800A3F80424044801F017FA03B05DF804FB92
:100E480000440040240500207827002008B5024807
:100E580002F0F6F908BD00BFAC26002008B502482C
:100E680002F0EEF908BD00BFF026002082B00E4B5C
:100E78009A6942F001029A619A6902F001020092AD
:100E8800009ADA6942F08052DA61DB6903F0805334
:100E98000193019B054A536823F0E06343F0007314
:100EA800536002B0704700BF0010024000000140CC
:100EB8000F4B1A6842F001021A6059680D4A0A403D
:100EC8005A601A6822F0847222F480321A601A6812
:100ED80022F480221A605A6822F4FE025A604FF403
:100EE8001F029A60044B4FF000629A60704700BF7F
:100EF800001002400000FFF800ED00E010B50446C5
:100F08000E4B18784FF47A73B3FBF0F30C4A106861
:100F1800B0FBF3F002F062FB68B90F2C01D9012095
:100F28000AE0002221464FF0FF3002F011FB054B8A
:100F38001C60002000E0012010BD00BF040000205C
:100F4800000000200800002008B5074A136843F095
:100F580010031360032002F0E9FA0020FFF7CEFF28
:100F6800FFF784FF002008BD00200240034A1168F3
:100F7800034B1B780B441360704700BF800B0020A5
:100F880004000020014B1868704700BF800B002048
:100F980038B50446FFF7F6FF0546B4F1FF3F02D027
:100FA800044B1B781C44FFF7EDFF401BA042FAD30B
:100FB80038BD00BF0400002038B512F4804F44D07B
:100FC8000468B4F850309BB291F800C003EBCC032E
:100FD800023304EB4303B3F80044C4F309048B69F8
:100FE800A34228D31B1B8B618B697BB9056835F835
:100FF8002C309BB223F4804323F0700383F4005316
:1010080043F4004343F0800325F82C3012F0400FDE
:101018000ED002680D7832F825309BB223F4E043F5
:1010280023F0700343F4004343F0C00322F8253053
:1010380024B9204638BD00238B61D5E723460A89A9
:101048004969006803F0A5FAF3E70468B4F850307A
:101058009BB291F800C003EBCC03063304EB4303C7
:10106800B3F80044C4F309048B69A3422FD31B1BB4
:101078008B618B697BB9056835F82C309BB223F4FA
:10108800804323F0700383F4005343F4004343F098
:10109800800325F82C3012F0400F0FD1026891F828
:1010A80000C032F82C309BB223F4E04323F07003E5
:1010B80043F4004343F0C00322F82C30002CB8D08E
:1010C80023464A894969006803F063FAB1E70023B7
:1010D8008B61CEE770B586B0002800F085800446A5
:1010E80090F8A932EBB1032384F8A932206802F002
:1010F80099FA254655F8106BEC460FCDACE80F0071
:101108002B68CCF80030231D0ECB304602F07AFA5B
:10111800054658B1022384F8A9320125284606B0AD
:1011280070BD80F8A83204F003FCDCE700212068D9
:1011380002F082FA2B461AE05A1C02EB820104EBF9
:10114800C1010120487002EB820104F8313003EB41
:10115800830104EBC101CB8602EB820C04EBCC0CBF
:1011680000208CF803008863C8630864D3B2616800
:101178008B42E1D316E005EB850304EBC3030022A1
:1011880083F8692183F8685183F86B21C3F87821C3
:10119800C3F87C2105EB850304EBC303C3F8802166
:1011A8000135EDB2A942E6D8254655F8106BEC4654
:1011B8000FCDACE80F002B68CCF80030231D0ECB08
:1011C800304602F03BFA054620B1022384F8A932E2
:1011D8000125A3E7002384F82430012384F8A932E9
:1011E800206802F061FD99E7012597E738B590F886
:1011F800A832012B11D00446012580F8A8520068B6
:1012080002F007FA2946204604F0A7FC206802F0FD
:1012180049FD002084F8A80238BD0220FCE770B51B
:1012280005460C46164612F0400F00F00D81026884
:10123800B2F850309BB2097803EBC103023302EBDA
:101248004303B3F80024C2F30902A369934252D9B5
:101258009B1AA361A369002B6AD16378002B4DD137
:101268002B68B3F8502092B2134403EB0111B1F884
:1012780004349BB223F4F8439BB2A1F80434B1F8C8
:1012880004346FEA43436FEA53439BB2A1F8043432
:101298002B686278002A3ED1B3F8502092B21344EA
:1012A800227803EB0213B3F80C2492B222F4F8422A
:1012B80092B2A3F80C24B3F80C246FEA42426FEA06
:1012C800524292B2A3F80C242178284604F064FB19
:1012D80016F4804F41D02A68217832F821309BB229
:1012E80023F4E04323F0700343F4404343F08003C6
:1012F80022F8213031E00023A361ABE7012BC7D1ED
:101308002B68B3F8502092B2134403EB0111002369
:10131800A1F80434BCE7012AD6D1B3F8502092B220
:101328001344227803EB02130022A3F80C24CBE722
:1013380016F4804F0DD0286830F821309BB223F482
:10134800E04323F0700343F4404343F0800320F864
:10135800213094F82430012B12D02A68217832F8F1
:1013680021309BB223F4E04323F0400383F03003A1
:1013780043F4004343F0800322F82130002070BD7D
:10138800636913446361E3691344E361216A236970
:1013980099421FD3C91A21626278002A3FD12A686C
:1013A800B2F8501089B20A44217802EB0112EBB965
:1013B800B2F8041489B221F4F84189B2A2F80414ED
:1013C800B2F804146FEA41416FEA514189B2A2F8B8
:1013D800041426E021B9002384F824301346DBE7FF
:1013E800002384F8243023620B46D5E73E2B09D826
:1013F800590813F0010F00D00131890289B2A2F80F
:1014080004140EE0590913F01F0F00D101396FEAD7
:10141800C1616FEA514189B2A2F8041401E0012ABE
:1014280006D09BB222896169286802F045FC94E7DE
:101438002A68B2F8501089B20A44217802EB0112E6
:1014480099B2A2F80414ECE70268B2F850309BB2E3
:10145800097803EBC103063302EB4303B3F8002416
:10146800C2F30902A369934253D39B1AA361A369E8
:10147800002B6BD16378002B4ED12B68B3F850202A
:1014880092B2134403EB0111B1F804349BB223F474
:10149800F8439BB2A1F80434B1F804346FEA43432B
:1014A8006FEA53439BB2A1F804342B686278002A90
:1014B8003FD1B3F8502092B21344227803EB0213C1
:1014C800B3F80C2492B222F4F84292B2A3F80C2496
:1014D800B3F80C246FEA42426FEA524292B2A3F880
:1014E8000C242178284604F057FA16F4804F7FF42C
:1014F80034AF2A68217832F821309BB223F4E043D4
:1015080023F0700343F4404343F0800322F8213072
:1015180023E70023A361AAE7012BC6D12B68B3F800
:10152800502092B2134403EB01110023A1F80434B4
:10153800BBE7012AD5D1B3F8502092B213442278E0
:1015480003EB02130022A3F80C24CAE716F4804F19
:101558000DD1286830F821309BB223F4E04323F002
:10156800700343F4404343F0800320F8213094F89B
:101578002430012B7FF4F1AE636913446361E3699E
:101588001344E361216A236999421FD3C91A21626E
:101598002A68617800293ED1B2F8501089B20A440D
:1015A800217802EB0112EBB9B2F80C1489B221F4DC
:1015B800F84189B2A2F80C14B2F80C146FEA414150
:1015C8006FEA514189B2A2F80C1426E021B9002330
:1015D80084F824301346DBE70023236284F82430A0
:1015E8000B46D5E73E2B09D8590813F0010F00D058
:1015F8000131890289B2A2F80C140EE0590913F0DE
:101608001F0F00D101396FEAC1616FEA514189B2F8
:10161800A2F80C1401E0012906D09BB26289616925
:10162800286802F049FB98E6B2F8501089B20A44DB
:10163800217802EB011299B2A2F80C14EDE72DE91A
:10164800F04105462868B0F8443013F4004F00F024
:101658000F82B0F84440A3B214F00F0440F0D880D1
:1016680013F0100F61D003889AB213F4006F40F0A2
:10167800938012F4004FE5D0038823F070031B0514
:101688001B0D43F0800303802868B0F850309BB2EC
:1016980095F8682103EBC203063300EB4303B3F864
:1016A8000034C3F30903C5F884318BB1D5F87C1134
:1016B80071B1B5F86E2102F06CFFD5F88421D5F828
:1016C8007C311344C5F87C310021284604F058F9D0
:1016D8002B681A8812F4006FB4D1B3F8502092B274
:1016E8001344D5F87821002A79D1B3F80C2492B2A2
:1016F80022F4F84292B2A3F80C24B3F80C246FEA4F
:1017080042426FEA524292B2A3F80C242A68138824
:101718009BB223F4804323F0700383F4405343F4D3
:10172800004343F0800313808CE703889BB223F4C3
:10173800E14323F070036FEA43436FEA53439BB2DC
:1017480003802A68B2F850309BB295F8281003EB52
:10175800C103023302EB4303B3F80034C3F30903B4
:101768006B64EA6B1344EB630021284604F014F918
:1017780095F82430002B3FF465AF2B6C002B7FF4D9
:1017880061AF95F824302A6843F08003A2F84C3002
:10179800002385F8243055E7B0F850309BB295F80F
:1017A800682103EBC203063300EB4303B3F80034AC
:1017B800C3F30903C5F88431B5F86E2105F52C711A
:1017C80002F0E7FE2A68138823F070031B051B0D3F
:1017D80043F080031380284604F0CAF832E73E2A13
:1017E80009D8510812F0010F00D001318A0292B2D3
:1017F800A3F80C248AE7510912F01F0F00D1013910
:101808006FEAC1626FEA524292B2A3F80C247DE7F4
:1018180030F824309EB213F4004F4FD116F0800FE9
:101828003FF410AF621C02EB820105EBC10128688E
:1018380030F824309BB223F4E14323F070036FEABD
:1018480043436FEA53439BB220F82430CB78032BF1
:1018580007D033B1022B40F0068116F4807F40F0A8
:1018680002812868B0F850309BB2621C02EB8202F9
:1018780015F8326003EBC603023300EB4303B3F8F9
:101888000034C3F3090304EB840205EBC202126CB3
:101898009A4240F2D48004EB840705EBC707D21ABA
:1018A8003A6404EB840205EBC202126C002A40F091
:1018B800CD803146284604F06FF8C3E630F824306E
:1018C80023F070031B051B0D43F0800320F8243020
:1018D80004EB8401C90001F5B47105EB010804EBC0
:1018E800840305EBC30393F87431002B42D12868B5
:1018F800B0F850309BB204EB840205EBC20292F8B8
:10190800682103EBC203063300EB4303B3F800740A
:10191800C7F3090717BB04EB840305EBC303D3F82C
:1019280084213A44C3F88421D3F87C213A44C3F88B
:101938007C21D3F880313BB104EB840305EBC3036E
:10194800D3F878319F4275D204EB840305EBC303C7
:1019580093F86811284604F013F85FE704EB840154
:1019680005EBC1013B46B1F86E21D1F87C1102F0BC
:1019780010FED0E704EB840305EBC30393F86B3147
:10198800022B35D0296804EB840205EBC20292F8D9
:10199800680131F820309BB223F4E04323F0700350
:1019A80043F4004343F0C00321F82030286892F83C
:1019B800682130F8223013F4804F20D0B0F850302E
:1019C8009BB203EBC203023300EB4303B3F800748A
:1019D800C7F30907002F9ED004EB840105EBC10172
:1019E8003B46B1F87021D1F87C1102F0D2FD92E7A4
:1019F800324641462846FFF7DFFA07468BE7B0F83C
:101A080050309BB203EBC203063300EB4303B3F839
:101A18000074C7F30907002F3FF47DAF04EB84017E
:101A280005EBC1013B46B1F87221D1F87C1102F0F7
:101A3800B0FD70E74146286802F052F9EEE604EB83
:101A4800840205EBC202002717642AE704EB84022C
:101A580005EBC202D66B1E44D663546C2344536410
:101A680002F03EF9EEE532462846FFF7D8FBE9E5F5
:101A78000020BDE8F08190F8A832012B0DD010B5F8
:101A88000446012380F8A83280F82410006802F088
:101A980003F9002084F8A80210BD0220704710B591
:101AA80084B00446006802F001F910F4004F47D1F1
:101AB800206802F0FBF810F4806F45D1206802F02E
:101AC800F5F810F4804F08D02268B2F844309BB281
:101AD80023F480439BB2A2F84430206802F0E6F871
:101AE80010F4005F08D02268B2F844309BB223F4A7
:101AF80000539BB2A2F84430206802F0D7F810F4E3
:101B0800805F32D1206802F0D1F810F4006F78D1EC
:101B1800206802F0CBF810F4007F40F09D80206828
:101B280002F0C4F810F4807F08D02268B2F844307C
:101B38009BB223F480739BB2A2F8443004B010BD6A
:101B48002046FFF77CFDB3E72268B2F844309BB229
:101B580023F480639BB2A2F84430204603F02DFFA3
:101B680000212046FFF787FFA8E72268B2F8403037
:101B78009BB223F004039BB2A2F840302268B2F86B
:101B880040309BB223F008039BB2A2F840302046B5
:101B980003F036FF2268B2F844309BB223F4805336
:101BA8009BB2A2F84430ADE7226832F8231004AAA9
:101BB80002EB430222F8101C0133DBB2072BF3D9E6
:101BC8002268B2F840309BB243F00103A2F84030DB
:101BD8002268B2F840309BB223F001039BB2A2F80E
:101BE80040302368B3F8442012F4806FF9D0B3F87A
:101BF800442092B222F4806292B2A3F844200023D7
:101C08000BE00023DAE7226804A901EB430131F86D
:101C1800101C22F823100133DBB2072BF3D92268FA
:101C2800B2F840309BB243F00803A2F84030226873
:101C3800B2F844309BB223F400639BB2A2F844305C
:101C48002268B2F840309BB243F00403A2F8403057
:101C5800204603F0C5FE5BE72268B2F844309BB229
:101C680023F400739BB2A2F84430204603F09FFE91
:101C780055E710B504468C4611F0800F2AD101F0C3
:101C8800070000EB8001C90001F5B47E04EB0E01EA
:101C980000EB800004EBC0004FF0000E80F869E113
:101CA8000CF0070C81F800C00A61CB704A780AB1C1
:101CB800A1F80EC0022B19D094F8A832012B18D025
:101CC800012384F8A832206801F0C9FC002084F8B8
:101CD800A80210BD01F00700013000EB800104EB01
:101CE800C1014FF0010E81F801E0D9E700230B7123
:101CF800E2E70220EDE710B504460B4611F0800F2D
:101D08001FD101F0070202EB8201C90001F5B4718D
:101D1800014402EB820200EBC202002082F8690152
:101D280003F007030B7094F8A832012B13D001239A
:101D380084F8A832206801F04EFE002084F8A8023A
:101D480010BD01F00702013202EB820100EBC10174
:101D580001204870E4E70220F2E710B501F007041B
:101D680004EB8401C90001F5B471014404EB840C4F
:101D780000EBCC0CCCF87C21CCF880310023CCF8DB
:101D880084318CF869318CF8684124B9006801F015
:101D9800A7FF002010BD006801F0A2FFF9E701F0DD
:101DA800070101EB810100EBC101D1F88401704703
:101DB80010B501F0070404F1010C0CEB8C0100EBE9
:101DC800C10104EB840E00EBCE0ECEF83C20CEF819
:101DD800403001228EF84C20CEF848300023CEF84F
:101DE80044304A700CEB8C0C00F83C4024B9006875
:101DF80001F076FF002010BD006801F071FFF9E7DF
:101E080038B501F007054268954231D804460B46BB
:101E180011F0800F1ED101EB8101C90001F5B471E9
:101E2800014403EB830300EBC303002283F8692119
:101E380001238B700D7094F8A832012B1AD001235E
:101E480084F8A832206801F0B1FE5DB1002084F862
:101E5800A80238BD6B1C03EB830100EBC101012212
:101E68004A70E5E704F52C71206801F023FFEDE7DF
:101E78000120EEE70220ECE70B4601F00F01426873
:101E8800914230D810B5044613F0800F21D103F0E9
:101E9800070202EB8201C90001F5B471014402EBAB
:101EA800820200EBC202002082F8690100228A70D7
:101EB80003F007030B7094F8A832012B15D0012307
:101EC80084F8A832206801F096FE002084F8A80261
:101ED80010BD03F00702013202EB820100EBC101E1
:101EE80001204870E2E7012070470220F0E711F076
:101EF800800F0BD001F00701013101EB810100EBEC
:101F0800C10152B90A73CB800020704701EB8101EF
:101F1800C90001F5B4710144F3E701220A730B818A
:101F28001B0C4B81F0E70268D36823F0C003D36031
:101F3800202380F83D3070470268D36823F49073FB
:101F4800D3600268536923F001035361036B012BCB
:101F580005D0202380F83E300023036370470268D1
:101F6800D36823F01003D360F3E790F83D30DBB279
:101F7800212B01D0022070478368B3F5805F17D00A
:101F8800036A5A1C02621A7803685A60C38C9BB2AF
:101F9800013B9BB2C3844BB90268D36823F080032A
:101FA800D3600268D36843F04003D36000207047D1
:101FB8000369002BE4D1036A1B880268C3F3080392
:101FC8005360036A02330362E0E7000010B5044679
:101FD8000268136923F44053C1680B431361836893
:101FE8000269134342691A430168CB6823F4B0536A
:101FF80023F00C031343CB600268536923F4407346
:1020080081690B4353610268134B9A4220D000F058
:10201800D3FD024602EB820202EB820263689B0058
:10202800B2FBF3F20D48A0FB02314909642303FB1C
:1020380011231B013233A0FB03235B0903F0F002D9
:1020480002EB011203F00F03216813448B6010BDEB
:1020580000F0C2FD0246DDE7003801401F85EB5164
:1020680058B310B5044690F83D300BB3242384F8D8
:102078003D302268D36823F40053D3602046FFF72D
:10208800A5FF2268136923F49043136122685369FA
:1020980023F02A0353612268D36843F40053D360C2
:1020A80000202064202384F83D3084F83E3010BDA1
:1020B80080F83C3003F0C8FBD8E70120704790F85F
:1020C8003D30DBB2202B19D1D1B1DAB190F83C30D8
:1020D800012B19D0012380F83C3001628284C2842C
:1020E80000230364212280F83D2080F83C300168F9
:1020F800CA6842F08002CA601846704702207047DA
:1021080001207047012070470220704708B5016818
:10211800CA6822F04002CA60202280F83D2003F0FD
:1021280061FB002008BD704710B5446A23685A69EE
:1021380094F83D30DBB2212B10D023685A6902F0A5
:10214800400294F83E30DBB2222B11D0236C43F0CE
:1021580010032364204603F027FB10BD02F0800221
:10216800002AEAD00023E3842046FFF7DCFEE4E7F8
:10217800002AEBD00023E3852046FFF7DDFEE5E7E4
:1021880008B5406A0023C385C38403F00DFB08BD6E
:10219800704790F83E30DBB2222B60D18368B3F5EC
:1021A800805F46D0826AB3F5805F04D0002B4DD1A2
:1021B8000369002B4AD103685B681370836A013393
:1021C8008362C38D9BB2013B9BB2C385002B48D170
:1021D80000B583B00268D36823F02003D360026897
:1021E800D36823F48073D3600268536923F0010332
:1021F8005361202380F83E30036B012B2CD1002340
:1022080003630268D36823F01003D36003681A6875
:1022180012F0100F06D0002201921A6801925B6832
:102228000193019B818DFFF7B3FF002003B05DF898
:1022380004FB0269002AB5D1826A03685B68C3F3AC
:1022480008031380836A02338362BAE703685B6812
:1022580003F07F031370B1E703F0DCF9E5E7022030
:10226800704700207047000030B583B0044602680C
:102278001368D068516913F00F0505D113F0200FCA
:1022880002D010F0200F19D12DB111F0010119D190
:1022980010F4907F16D1216B012975D013F0800FAF
:1022A80003D010F0800F40F0D78013F0400F03D018
:1022B80010F0400F40F0D48003B030BD2046FFF747
:1022C80068FFF9E713F0010F06D010F4807F03D000
:1022D800226C42F00102226413F0040F04D019B1F9
:1022E800226C42F00202226413F0020F04D019B1EA
:1022F800226C42F00402226413F0080F07D010F099
:10230800200F00D119B1226C42F008022264226C1D
:10231800002AD1D013F0200F02D010F0200F21D1C5
:1023280023685B6903F04003226C12F0080F00D1A8
:1023380023B32046FFF700FE23685A6912F0400FC6
:1023480018D05A6922F040025A61A36B73B1464A09
:102358005A63A06B00F0C0FE0028ADD0A06B436BA1
:102368009847A9E72046FFF714FFD9E7204603F06E
:102378001BFAA1E7204603F017FA9DE7204603F071
:1023880013FA0023236497E713F0100F86D010F098
:10239800100F83D0002301931368019353680193AE
:1023A800019B536913F0400F32D0A16B0B685B6837
:1023B8009BB2002B80D0A08D98427FF67DAFE3853D
:1023C8008B69202B08D1A18DE38D9BB2C91A89B2E4
:1023D8002046FFF7DDFE6FE7D36823F48073D360F0
:1023E8002268536923F0010353612268536923F07B
:1023F80040035361202384F83E300023236322687E
:10240800D36823F01003D360A06B00F043FEDAE733
:10241800A18DE38D9BB2C91A89B2E38D9BB2002BC3
:102428003FF44AAF00293FF447AFD36823F49073D1
:10243800D3602268536923F001035361202384F891
:102448003E30002323632268D36823F01003D3604F
:102458002046FFF79DFE2FE72046FFF786FD2BE776
:102468002046FFF753FE27E78921000808B5406A90
:10247800036B012B02D0FFF756FE08BD818D49087A
:10248800FFF786FEF9E708B50346406A1B681B6834
:1024980013F0200F16D10023C3850268D36823F4F4
:1024A8008073D3600268536923F0010353610268A3
:1024B800536923F040035361202380F83E30036BB7
:1024C800012B05D0036B012B08D003F0A3F808BD3E
:1024D8000268D36823F01003D360F3E7818DFFF718
:1024E80057FEF4E730B583B004461346816282850F
:1024F80000250564222280F83E20826B14489062F1
:10250800A26B1448D062A26B13481063A26B556388
:1025180020680A46011DA06B00F082FD0195236822
:102528001A6801925A680192019A84F83C50DA6854
:1025380042F48072DA602268536943F00103536100
:102548002268536943F040035361284603B030BD05
:102558008F240008752400083121000808B590F878
:102568003E30DBB2202B0DD171B17AB190F83C30FE
:10257800012B0DD0012380F83C3000230363FFF7C3
:10258800B1FF00E0022008BD0120FCE70120FAE7C6
:102598000220F8E782B0084B1B68084AA2FB032315
:1025A8005B0A00FB03F3019300BF019B5A1E0192D3
:1025B800002BF9D102B0704700000020D34D621003
:1025C800002800F0F18170B582B00446036813F06A
:1025D800010F2CD0994B5B6803F00C03042B1DD022
:1025E800964B5B6803F00C03082B12D06368B3F5B5
:1025F800803F41D0002B55D103F1804303F50433CC
:102608001A6822F480321A601A6822F480221A604A
:1026180037E08A4B5B6813F4803FE7D0874B1B6831
:1026280013F4003F03D06368002B00F0BF812368D8
:1026380013F0020F75D0814B5B6813F00C0F5FD05D
:102648007E4B5B6803F00C03082B54D02369002BE6
:1026580000F08A807A4B01221A60FEF793FC054647
:10266800764B1B6813F0020F75D1FEF78BFC401BED
:102678000228F5D903209EE1704A136843F4803399
:102688001360636843B3FEF77DFC05466B4B1B681C
:1026980013F4003FCBD1FEF775FC401B6428F5D935
:1026A800032088E1B3F5A02F09D0644B1A6822F4FF
:1026B80080321A601A6822F480221A60E1E703F176
:1026C8008043A3F53C331A6842F480221A601A68E2
:1026D80042F480321A60D4E7FEF754FC0546574BA3
:1026E8001B6813F4003FA2D0FEF74CFC401B642883
:1026F800F5D903205FE1514B5B6813F4803FA5D106
:102708004E4B1B6813F0020F03D02369012B40F0D6
:102718004F814A4A136823F0F803616943EAC10309
:102728001360236813F0080F33D0A369002B5CD023
:10273800434B0122C3F88024FEF724FC05463F4B97
:102748005B6A13F0020F21D1FEF71CFC401B022824
:10275800F5D903202FE1394A136823F0F80361699A
:1027680043EAC1031360DCE7354B00221A60FEF729
:1027780009FC0546314B1B6813F0020FD1D0FEF758
:1027880001FC401B0228F5D9032014E10120FFF7C2
:1027980001FF236813F0040F00F09680274BDB69D4
:1027A80013F0805F34D1254BDA6942F08052DA6148
:1027B800DB6903F080530193019B0125214B1B68C2
:1027C80013F4807F26D0E368012B3DD0002B53D132
:1027D80003F1804303F504331A6A22F001021A62F6
:1027E8001A6A22F004021A6233E0154B0022C3F879
:1027F8008024FEF7C7FB0546104B5B6A13F0020FF7
:10280800C7D0FEF7BFFB401B0228F5D90320D2E052
:102818000025D3E70B4A136843F480731360FEF76F
:10282800B1FB0646074B1B6813F4807FCBD1FEF73C
:10283800A9FB801B6428F5D90320BCE000100240E6
:1028480000004242007000405F4A136A43F00103EF
:102858001362E36833B3FEF795FB06465A4B1B6ACF
:1028680013F0020F2FD1FEF78DFB801B41F2883346
:102878009842F3D903209EE0052B09D0524B1A6ADF
:1028880022F001021A621A6A22F004021A62E0E7D0
:102898004D4B1A6A42F004021A621A6A42F00102A7
:1028A8001A62D6E7FEF76EFB0646474B1B6A13F023
:1028B800020F08D0FEF766FB801B41F2883398426E
:1028C800F3D9032077E0E5B9E369002B72D03E4ADB
:1028D800526802F00C02082A56D0022B17D03B4B44
:1028E80000221A66FEF74EFB0446374B1B6813F0AE
:1028F800007F47D0FEF746FB001B0228F5D90320CE
:1029080059E0314AD36923F08053D361DCE72F4B78
:1029180000221A66FEF736FB05462B4B1B6813F0A0
:10292800007F06D0FEF72EFB401B0228F5D90320B6
:1029380041E0236AB3F5803F1AD023494B6823F45A
:102948007413226A606A024313434B601F4B0122CF
:102958001A66FEF717FB04461B4B1B6813F0007F33
:102968000ED1FEF70FFB001B0228F5D9032022E049
:10297800154A536823F40033A1680B435360DCE71E
:10298800002018E0002016E0012B16D00E4B5B68E3
:1029980003F48031226A914211D103F47013626A00
:1029A80093420ED1002006E001207047012002E08A
:1029B800012000E0002002B070BD0120FBE70120EB
:1029C800F9E70120F7E700BF00100240000042428B
:1029D80086B0174B0FCB0DF1180C0CE90F0040F225
:1029E8000123ADF80430134B5B6803F00C02082A8E
:1029F80002D0114806B07047C3F3834218326A44C4
:102A080012F8100C13F4803F0DD00A4B5B68C3F327
:102A1800404318336B4413F8143C074A02FB00F098
:102A2800B0FBF3F0E6E7054B03FB00F0E2E700BF7D
:102A3800B48A00080010024000127A0000093D0024
:102A4800002800F0A08070B50D460446524B1B6864
:102A580003F007038B420BD24F4A136823F0070396
:102A68000B431360136803F007038B4240F08D801B
:102A7800236813F0020F17D013F0040F04D0474A4D
:102A8800536843F4E0635360236813F0080F04D0DD
:102A9800424A536843F460535360404A536823F0F2
:102AA800F003A1680B435360236813F0010F31D082
:102AB8006368012B20D0022B25D0384A126812F007
:102AC800020F64D035494A6822F0030213434B6071
:102AD800FEF758FA0646314B5B6803F00C03626850
:102AE800B3EB820F16D0FEF74DFA801B41F2883304
:102AF8009842F0D9032045E0284A126812F4003FB2
:102B0800E0D101203EE0254A126812F0007FD9D1B9
:102B1800012037E0204B1B6803F00703AB420AD9BA
:102B28001D4A136823F007032B431360136803F04F
:102B38000703AB422DD1236813F0040F06D0174AC0
:102B4800536823F4E063E1680B435360236813F090
:102B5800080F07D0114A536823F46053216943EAE8
:102B6800C1035360FFF734FF0C4B5B68C3F30313D7
:102B78000B4AD35CD8400B4B18600B4B1868FEF718
:102B8800BDF9002070BD012070470120FAE701203F
:102B9800F8E70120F6E700BF0020024000100240DD
:102BA8009C8A00080000002008000020014B1868DB
:102BB800704700BF0000002008B5FFF7F7FF044B7F
:102BC8005B68C3F30223034AD35CD84008BD00BF47
:102BD80000100240AC8A000808B5FFF7E7FF044B75
:102BE8005B68C3F3C223034AD35CD84008BD00BF67
:102BF80000100240AC8A000870B582B00446036831
:102C080013F0010F36D03F4BDB6913F0805F49D1D9
:102C18003C4BDA6942F08052DA61DB6903F0805399
:102C28000193019B0125384B1B6813F4807F3BD02F
:102C3800344B1B6A13F4407313D0626802F4407279
:102C48009A420ED02F4A136A23F440702F49012666
:102C5800C1F840640026C1F84064106213F0010F07
:102C680036D1284A136A23F4407361680B43136210
:102C7800002D3ED1236813F0020F06D0214A536875
:102C880023F44043A1680B435360236813F0100FEB
:102C980034D01C4A536823F4800361690B435360A2
:102CA80000202CE00025BEE7174A136843F4807320
:102CB8001360FEF767F90646134B1B6813F4807F11
:102CC800B6D1FEF75FF9801B6428F5D9032016E01A
:102CD800FEF758F906460B4B1B6A13F0020FC0D1DA
:102CE800FEF750F9801B41F288339842F3D903204C
:102CF80005E0D36923F08053D361BBE7002002B01D
:102D080070BD00BF00100240007000400000424249
:102D180070B582B00024A446B0E0874DAA4210D016
:102D280007D9864DAA420CD005F58035AA4208D0AD
:102D380013E0A5F58015AA4203D005F57025AA422F
:102D480007D18A68002A62D0012A5BD0436108242F
:102D580003E0A5F58015AA42F3D0BEF1FF0F58D8BD
:102D68000646BEF1FF0F56D84FEA8C0233680F258E
:102D7800954023EA050304FA02F2134333604B68D3
:102D880013F0805F78D06E4B9A6942F001029A6125
:102D98009B6903F001030193019B4FEA9C02951C78
:102DA800684B53F825600CF003039D000F23AB40DC
:102DB80026EA0306644B984233D003F580639842B1
:102DC80000F0988003F58063984200F0958003F541
:102DD8008063984200F0928003F58063984200F087
:102DE8008F8003F58063984219D006231AE0CC68D7
:102DF800B3E7CC680434B0E7CC680834ADE7CC68F6
:102E08000C34AAE703610824A7E70024A5E70424F3
:102E1800A3E7061DA5E7ACF108029200A6E7052383
:102E280000E00023AB4033430232464D45F82230E0
:102E38004B6813F4803F65D0444A136843EA0E0395
:102E480013604B6813F4003F62D0404A536843EA6A
:102E58000E0353604B6813F4801F5FD03B4A93689E
:102E680043EA0E0393604B6813F4001F5CD0374AA3
:102E7800D36843EA0E03D3600CF1010C0A6832FAF6
:102E88000CF357D0012303FA0CF302EA030E33EADA
:102E98000202F1D14A68122A3FF63FAF122A3FF6E2
:102EA8005CAF01A555F822F04B2D0008F72D00085E
:102EB800012E0008132E0008632D0008632D00085A
:102EC800632D0008632D0008632D0008632D00089A
:102ED800632D0008632D0008632D0008632D00088A
:102EE800632D0008632D0008632D0008FB2D0008E2
:102EF800072E0008012395E7022393E7032391E7B0
:102F080004238FE7114A136823EA0E03136098E736
:102F18000E4A536823EA0E0353609BE70B4A9368F3
:102F280023EA0E0393609EE7084AD36823EA0E0358
:102F3800D360A1E702B070BD00002210000031107C
:102F48000010024000000140000801400004014058
:102F58000AB10161704709040161704730B4012466
:102F6800056CAC40C56B6C60046863604368102BEB
:102F780005D0036899600368DA6030BC704703685D
:102F88009A600368D960F8E700283AD010B402467E
:102F980000681D4B984229D81C4B03441C49A1FBCF
:102FA80003131B099B0013641A4BD363022382F893
:102FB8002130016821F47F5121F030015368946871
:102FC8002343D468234314692343546923439469EE
:102FD8002343D46923430B430360002090630123F8
:102FE80082F8213082F8200010BC70470A4B034455
:102FF8000749A1FB03131B099B001364074BD36309
:10300800D4E70120704700BF07040240F8FFFDBF66
:10301800CDCCCCCC00000240F8FBFDBF0004024040
:1030280038B5044690F82000012831D0012084F8F2
:10303800200094F82100012804D0002384F82030CF
:10304800022038BD022084F821000020A0632568F2
:10305800286820F0010028602046FFF77FFFE36A18
:103068005BB12268136843F00E031360226813688B
:1030780043F0010313600020E3E72268136823F09C
:10308800040313602268136843F00A031360EDE732
:103098000220D6E790F82130022B06D00423836360
:1030A800002380F82030012070470268136823F05D
:1030B8000E0313600268136823F001031360036CA6
:1030C800C16B012202FA03F34B6080F82120002330
:1030D80080F820301846704708B590F82130022B48
:1030E80003D004238363012008BD0268136823F01A
:1030F8000E0313600268136823F00103136003686A
:103108004B4A93424ED9783A934224D01432934290
:1031180030D0143293422FD0143293422FD014322D
:1031280093422FD0143293422FD0143293422FD08F
:1031380002F5627293422ED0143293422DD014328B
:1031480093422CD01432934202D04FF4803203E0E1
:103158004FF4805200E00122364B5A60012380F878
:103168002130002380F82030436B002B5ED0984735
:103178000020B9E71022EFE74FF48072ECE74FF434
:103188008052E9E74FF48032E6E74FF48012E3E734
:103198004FF08072E0E70122DEE71022DCE74FF40F
:1031A8008072D9E7244A934224D01432934225D01E
:1031B8001432934224D01432934224D014329342CE
:1031C80024D01432934224D01432934224D002F5EE
:1031D8006272934223D01432934222D01432934223
:1031E80021D01432934202D04FF4803203E04FF4DE
:1031F800805200E00122114B5A60AFE71022FAE733
:103208004FF48072F7E74FF48052F4E74FF48032BE
:10321800F1E74FF48012EEE74FF08072EBE70122FE
:10322800E9E71022E7E74FF48072E4E700205BE764
:1032380080000240000402400800024000000240F2
:1032480038B5C36B1A6804682568016C04238B4081
:10325800134200F09B8015F0040F00F0978023685C
:1032680013F0200F03D1236823F0040323600368BD
:103278009A4A934246D9783A934224D014329342D8
:1032880028D01432934227D01432934227D01432D4
:10329800934227D01432934227D01432934227D036
:1032A80002F56272934226D01432934225D014322A
:1032B800934224D01432934202D04FF4802203E088
:1032C8004FF4804200E00422854B5A60C36A03B180
:1032D800984738BD4022F7E74FF48062F4E74FF48F
:1032E8008042F1E74FF48022EEE74FF48002EBE7EB
:1032F8004FF08062E8E70422E6E74022E4E74FF473
:103308008062E1E7774A934224D01432934225D071
:103318001432934224D01432934224D0143293426C
:1033280024D01432934224D01432934224D002F58C
:103338006272934223D01432934222D014329342C1
:1033480021D01432934202D04FF4802203E04FF48C
:10335800804200E00422644B5A60B7E74022FAE753
:103368004FF48062F7E74FF48042F4E74FF480228D
:10337800F1E74FF48002EEE74FF08062EBE70422BA
:10338800E9E74022E7E74FF48062E4E702238B4055
:10339800134200F0AB8015F0020F00F0A7802368FD
:1033A80013F0200F06D1236823F00A0323600123BA
:1033B80080F821300368494A93424BD9783A9342BE
:1033C80024D0143293422DD0143293422CD014328C
:1033D80093422CD0143293422CD0143293422CD0E6
:1033E800143293422CD002F5627293422BD01432DD
:1033F80093422AD01432934229D01432934202D0F5
:103408004FF4003203E04FF4005200E00222344B44
:103418005A60002380F82030836A002B3FF459AFAC
:10342800984756E72022F2E74FF40072EFE74FF48F
:103438000052ECE74FF40032E9E74FF40012E6E7F8
:103448004FF00072E3E70222E1E72022DFE74FF4C2
:103458000072DCE7234A934224D01432934225D0E9
:103468001432934224D01432934224D0143293421B
:1034780024D01432934224D01432934224D002F53B
:103488006272934223D01432934222D01432934270
:1034980021D01432934202D04FF4003203E04FF4AB
:1034A800005200E00222104B5A60B2E72022FAE7ED
:1034B8004FF40072F7E74FF40052F4E74FF400328C
:1034C800F1E74FF40012EEE74FF00072EBE702224B
:1034D800E9E72022E7E74FF40072E4E780000240C2
:1034E800000402400800024000000240082303FADA
:1034F80001F111423FF4EDAE15F0080F3FF4E9AECB
:10350800236823F00E032360026CC16B012303FAC6
:1035180002F24A60836380F82130002380F820306B
:10352800036B002B3FF4D5AE9847D2E6074AD36821
:1035380023F4E0631B041B0C000200F4E060034367
:1035480043F0BF6343F40033D360704700ED00E0FD
:1035580000B5194BDB68C3F30223C3F1070CBCF1B8
:10356800040F28BF4FF0040C03F1040EBEF1060F40
:1035780018D9033B4FF0FF3E0EFA0CFC21EA0C0170
:1035880099400EFA03F322EA0303194300280BDBE0
:103598000901C9B200F1604000F5614080F80013EC
:1035A8005DF804FB0023E5E700F00F000901C9B24C
:1035B800024B1954F4E700BF00ED00E014ED00E001
:1035C800002807DB00F01F02400901239340024A4C
:1035D80042F82030704700BF00E100E00138B0F148
:1035E800807F0BD24FF0E0235861054AF02182F822
:1035F80023100020986107221A6170470120704744
:1036080000ED00E084B001A880E80E00002004B0BE
:10361800704703460020A3F844004FF43F42A3F844
:1036280040207047B0F8403023F47C535B045B0CB7
:10363800A0F84030002070470020704784B08446CE
:1036480001A880E80E000123ACF840300020ACF857
:103658004000ACF84400ACF8500004B0704710B516
:10366800034691F800C030F82C2092B222F4EC42C4
:1036780022F0700292B2C878032861D8DFE800F01F
:10368800555C0258002048F2800E42EA0E0223F8E8
:103698002C2091F800C033F82C2092B222F4E0429A
:1036A80022F070024CEA020242EA0E0223F82C20B1
:1036B8000A7B002A40F0C4804A78002A51D0B3F827
:1036C800502092B21A440C7802EB0412B1F806C0EA
:1036D8004FEA5C0C4FEA4C0CA2F800C40C7833F8A3
:1036E800242012F0400F0CD033F8242092B222F498
:1036F800E04222F0700242F4004242F0C00223F895
:103708002420CA78012A1DD0097833F8212092B2E2
:1037180022F4E04222F0400282F0200242F4004209
:1037280042F0800223F821206AE042F40072AAE7FE
:1037380042F4C0620020A6E742F480620020A2E7BB
:103748000120A0E7097833F8212092B222F4E04260
:1037580022F0400242F4004242F0800223F8212085
:103768004EE0B3F8502092B21A440C7802EB0412DF
:10377800B1F806C04FEA5C0C4FEA4C0CA2F808C43A
:10378800B3F8502092B21A440C7802EB04120C6978
:10379800BCBBB2F80CC41FFA8CFC2CF4F84C1FFA12
:1037A8008CFCA2F80CC4B2F80CC46FEA4C4C6FEA5B
:1037B8005C4C1FFA8CFCA2F80CC40C7833F824205B
:1037C80012F4804F0CD033F8242092B222F4E04255
:1037D80022F0700242F4404242F0800223F8242092
:1037E800097833F8212092B222F4804222F0700244
:1037F80082F4405242F4004242F0800223F8212031
:1038080010BD3E2C0DD84FEA540C14F0010F01D016
:103818000CF1010C4FEA8C2C1FFA8CFCA2F80CC49A
:10382800CBE74FEA541C14F01F0F01D10CF1FF3CF9
:103838006FEACC646FEA5444A4B2A2F80C44BCE723
:1038480091F800C033F82C2092B222F4E04222F022
:10385800700242F4014242F0800223F82C20B3F8AF
:10386800502092B21A4491F800C002EB0C12B1F841
:1038780008C04FEA5C0C4FEA4C0CA2F800C4B3F83D
:10388800502092B21A4491F800C002EB0C12B1F821
:103898000AC04FEA5C0C4FEA4C0CA2F808C44A78FC
:1038A800002A41D10C7833F8242012F4804F0CD030
:1038B80033F8242092B222F4E04222F0700242F45B
:1038C800404242F0800223F824200C7833F8242068
:1038D80012F0400F0CD033F8242092B222F4E042C8
:1038E80022F0700242F4004242F0C00223F8242081
:1038F80091F800C033F82C2092B222F4804222F0D2
:10390800700282F4405248F28004224323F82C20AB
:10391800097833F8212092B222F4E04222F04002E2
:10392800224323F821206BE70C7833F8242012F483
:10393800804F0CD033F8242092B222F4E04222F0D7
:10394800700242F4404242F0800223F824200C78AE
:1039580033F8242012F0400F0CD033F8242092B210
:1039680022F4E04222F0700242F4004242F0C00227
:1039780023F82420CA78012A1ED00C7833F8242092
:1039880092B222F4E04222F0400282F0200242F495
:10399800004242F0800223F82420097833F82120DD
:1039A80092B222F4804222F0700242F4004242F0C5
:1039B800800223F8212023E70C7833F8242092B2E0
:1039C80022F4E04222F0400242F4004242F0800237
:1039D80023F82420E1E70B7B002B46D14B7813B367
:1039E8000A7830F8223013F0400F0CD030F822302B
:1039F8009BB223F4E04323F0700343F4004343F005
:103A0800C00320F822300A7830F822309BB223F421
:103A1800E04323F0400343F4004343F0800320F8DD
:103A28002230002070470A7830F8223013F4804F93
:103A38000CD030F822309BB223F4E04323F070031B
:103A480043F4404343F0800320F822300A7830F8EA
:103A580022309BB223F4804323F0700343F40043E5
:103A680043F0800320F82230DBE74B78002B4ED15F
:103A78000A7830F8223013F4804F0CD030F8223016
:103A88009BB223F4E04323F0700343F4404343F034
:103A9800800320F822300A7830F8223013F0400FE3
:103AA8000CD030F822309BB223F4E04323F07003AB
:103AB80043F4004343F0C00320F822300A7830F87A
:103AC80022309BB223F4E04323F0700343F4004315
:103AD80043F0C00320F822300B7830F8232092B24C
:103AE80022F4804222F0700248F2800C42EA0C0272
:103AF80020F823200A7830F822309BB223F4E043E0
:103B080023F0400343EA0C0320F8223089E70A78BF
:103B180030F8223013F4804F0CD030F822309BB2AA
:103B280023F4E04323F0700343F4404343F080035D
:103B380020F822300A7830F8223013F0400F0CD0E9
:103B480030F822309BB223F4E04323F0700343F4AF
:103B5800004343F0C00320F822300A7830F82230BE
:103B68009BB223F4E04323F0700343F4404343F053
:103B7800800320F822300B7830F8232092B222F408
:103B8800E04222F0400248F2800C42EA0C0220F89F
:103B980023200A7830F822309BB223F4804323F0A4
:103BA800700343EA0C0320F822303AE74B788BB1D4
:103BB8000A7830F822309BB223F4E04323F0400324
:103BC80083F0100343F4004343F0800320F82230CD
:103BD800002070470A7830F822309BB223F48043E3
:103BE80023F0700383F4805343F4004343F08003CD
:103BF80020F82230ECE70B7B002B4BD14B7833B30A
:103C08000A7830F8223013F0400F0CD030F8223008
:103C18009BB223F4E04323F0700343F4004343F0E2
:103C2800C00320F82230CB78012B33D00A7830F843
:103C380022309BB223F4E04323F0400383F02003B7
:103C480043F4004343F0800320F8223022E00A784E
:103C580030F8223013F4804F0CD030F822309BB269
:103C680023F4E04323F0700343F4404343F080031C
:103C780020F822300A7830F822309BB223F48043AF
:103C880023F0700383F4405343F4004343F080036C
:103C980020F822300020704711B98023A0F84C305A
:103CA800002070470020704700207047B0F844009B
:103CB80080B270470020704710B45C1C640800EBA9
:103CC800420202F5806207E00B78487843EA002355
:103CD80022F8043B0231013C002CF5D110BC70479E
:103CE80070B505460C464B78012B37D00A7B002A65
:103CF80040F026838B690A69934240F204839B1A39
:103D08008B61B5F850309BB22B44217803EB01133B
:103D1800002A40F0FC82B3F80C2492B222F4F84254
:103D280092B2A3F80C24B3F80C246FEA42426FEA6B
:103D3800524292B2A3F80C24227835F822309BB272
:103D480023F4804323F0700383F4405343F4004387
:103D580043F0800325F82230002070BD8E690A697F
:103D6800964200D91646237B002B39D0E378022BE4
:103D780058D0227835F822309BB223F4E04323F060
:103D8800700343F4014343F0800325F82230236A8B
:103D98009B1B2362237835F8232012F0400F00F094
:103DA80026826278002A40F0CA81B5F8502092B283
:103DB8002A4402EB0313002E40F0A881B3F80C2428
:103DC80092B222F4F84292B2A3F80C24B3F80C246D
:103DD8006FEA42426FEA524292B2A3F80C24B0E171
:103DE800B6B23346E28861692846FFF765FFB5F841
:103DF80050309BB22B44227803EB0213A3F80464DF
:103E0800227835F822309BB223F4E04323F04003B4
:103E180083F0300343F4004343F0800325F8223055
:103E280000209AE7236A9A4280F05281227835F876
:103E380022309BB223F4E04323F0700343F40143A0
:103E480043F0800325F82230236A9B1B23622378E2
:103E580035F8232012F0400F00F09D8062788ABB6D
:103E6800B5F8502092B22A4402EB03138EB9B3F886
:103E78000C2492B222F4F84292B2A3F80C24B3F8BC
:103E88000C246FEA42426FEA524292B2A3F80C2421
:103E98001AE03E2E09D8720816F0010F00D0013240
:103EA800920292B2A3F80C240EE0720916F01F0FCA
:103EB80000D1013A6FEAC2626FEA524292B2A3F8A5
:103EC8000C2401E0012A2BD0B3B26289616928462B
:103ED800FFF7F2FE636933446361236A2269934200
:103EE80028D99B1B23626378002B40D1B5F850304A
:103EF8009BB22B44227803EB0213FEB9B3F80424D7
:103F080092B222F4F84292B2A3F80424B3F804243B
:103F18006FEA42426FEA524292B2A3F8042428E0C0
:103F2800B5F8502092B22A4402EB0313B2B2A3F8B8
:103F38000C24C9E7002222621E46D4E73E2E09D887
:103F4800720816F0010F00D00132920292B2A3F863
:103F580004240EE0720916F01F0F00D1013A6FEA2F
:103F6800C2626FEA524292B2A3F8042401E0012B24
:103F780006D0B3B2228961692846FFF79DFE3FE764
:103F8800B5F850309BB22B44227803EB0213B2B23F
:103F9800A3F80424EDE762788ABBB5F8502092B202
:103FA8002A4402EB03138EB9B3F8042492B222F424
:103FB800F84292B2A3F80424B3F804246FEA424208
:103FC8006FEA524292B2A3F804241AE03E2E09D8AE
:103FD800720816F0010F00D00132920292B2A3F8D3
:103FE80004240EE0720916F01F0F00D1013A6FEA9F
:103FF800C2626FEA524292B2A3F8042401E0012A95
:104008002BD0B3B2228961692846FFF755FE636950
:1040180033446361236A2269934228D99B1B236234
:104028006378002B40D1B5F850309BB22B442278EE
:1040380003EB0213FEB9B3F80C2492B222F4F8424F
:1040480092B2A3F80C24B3F80C246FEA42426FEA48
:10405800524292B2A3F80C2428E0B5F8502092B24C
:104068002A4402EB0313B2B2A3F80424C9E70022DE
:1040780022621E46D4E73E2E09D8720816F0010FB8
:1040880000D00132920292B2A3F80C240EE0720919
:1040980016F01F0F00D1013A6FEAC2626FEA52426E
:1040A80092B2A3F80C2401E0012B06D0B3B26289C6
:1040B80061692846FFF700FEA2E6B5F850309BB2CA
:1040C8002B44227803EB0213B2B2A3F80C24EDE7D9
:1040D800217835F8212092B222F4E24222F07002CF
:1040E80042F4004242F0800225F82120B5F8502021
:1040F80092B22A44217802EB01129BB2A2F804344E
:10410800228961692846FFF7D7FD79E63E2E09D84E
:10411800720816F0010F00D00132920292B2A3F891
:104128000C240EE0720916F01F0F00D1013A6FEA55
:10413800C2626FEA524292B2A3F80C2401E0012A4B
:1041480026D0B3B2628961692846FFF7B5FD636975
:1041580033446361236A2269934223D99B1B2362F8
:10416800002E3FF44DAE63786BBBB5F850309BB270
:104178002B44227803EB02133E2E17D8720816F050
:10418800010F00D00132920292B2A3F804241CE07D
:10419800B5F8502092B22A4402EB0313B2B2A3F846
:1041A8000C24CEE7002222621E46D9E7720916F0D7
:1041B8001F0F00D1013A6FEAC2626FEA524292B20F
:1041C800A3F8042401E0012B06D0B3B22289616967
:1041D8002846FFF771FD13E6B5F850309BB22B4423
:1041E800227803EB0213B2B2A3F80424EDE7627855
:1041F8008ABBB5F8502092B22A4402EB03138EB959
:10420800B3F8042492B222F4F84292B2A3F8042438
:10421800B3F804246FEA42426FEA524292B2A3F81A
:1042280004241AE03E2E09D8720816F0010F00D0B7
:104238000132920292B2A3F804240EE0720916F039
:104248001F0F00D1013A6FEAC2626FEA524292B27E
:10425800A3F8042401E0012A26D0B3B222896169B7
:104268002846FFF729FD636933446361236A22699D
:10427800934223D99B1B2362002E3FF4C1AD637880
:104288006BBBB5F850309BB22B44227803EB02137A
:104298003E2E17D8720816F0010F00D00132920294
:1042A80092B2A3F80C241CE0B5F8502092B22A442C
:1042B80002EB0313B2B2A3F80424CEE70022226271
:1042C8001E46D9E7720916F01F0F00D1013A6FEAAE
:1042D800C2626FEA524292B2A3F80C2401E0012BA9
:1042E80006D0B3B2628961692846FFF7E5FC87E525
:1042F800B5F850309BB22B44227803EB0213B2B2CC
:10430800A3F80C24EDE700228A611A46F9E43E2A54
:1043180009D8510812F0010F00D00131890289B281
:10432800A3F80C1408E5510912F01F0F00D1013948
:104338006FEAC1616FEA514189B2A3F80C14FBE43A
:10434800CA78022A45D0012A40F020818969226969
:10435800914240F2D480891AA161D3B9B5F850309E
:104368009BB22B44217803EB0113002A40F0CB8049
:10437800B3F8041489B221F4F84189B2A3F80414FB
:10438800B3F804146FEA41416FEA514189B2A3F8C6
:1043980004146378002B40F0EA80B5F850309BB2E3
:1043A8002B44217803EB0113002A40F0C580B3F8B1
:1043B8000C2492B222F4F84292B2A3F80C24B3F877
:1043C8000C246FEA42426FEA524292B2A3F80C24DC
:1043D800B2E4CBB9B0F850309BB203440A7803EB8F
:1043E80002130A6972BBB3F8042492B222F4F842A9
:1043F80092B2A3F80424B3F804246FEA42426FEAA5
:10440800524292B2A3F804246378002B4CD1B5F839
:1044180050309BB22B44227803EB0213226952BB23
:10442800B3F80C2492B222F4F84292B2A3F80C2406
:10443800B3F80C246FEA42426FEA524292B2A3F8F0
:104448000C2433E03E2A09D8510812F0010F00D09D
:1044580001318A0292B2A3F80424D5E7510912F077
:104468001F0F00D101396FEAC1626FEA524292B25E
:10447800A3F80424C8E73E2A09D8510812F0010F0E
:1044880000D001318A0292B2A3F80C240EE051093F
:1044980012F01F0F00D101396FEAC1626FEA524270
:1044A80092B2A3F80C2401E0012B1DD0E369002B84
:1044B8003FF442AC227835F8221044F2400303EA74
:1044C80001008B4302D000287FF436AC35F8223047
:1044D8009BB223F4E04323F0700343F4004343F01A
:1044E800C00325F8223027E4B5F850309BB22B449E
:1044F800227803EB0213228AA3F80C24D6E70022C1
:10450800A2610A4629E73E2A09D8510812F0010F8C
:1045180000D00131890289B2A3F8041439E751099E
:1045280012F01F0F00D101396FEAC1616FEA5141E2
:1045380089B2A3F804142CE73E2A0AD8510812F0CD
:10454800010F00D001318A0292B2A3F80C24FFF7C0
:10455800F3BB510912F01F0F00D101396FEAC16294
:104568006FEA524292B2A3F80C24FFF7E5BB012B85
:104578007FF4E2ABB5F850309BB22B44217803EBC3
:10458800011392B2A3F80C24FFF7D6BB0120FFF762
:10459800E4BB10B45C0800EB420000F5806007E063
:1045A80030F8042B0A70C2F307224A700231013C2A
:1045B800002CF5D113F0010F01D003880B7010BC4B
:1045C800704798B108B50346D0F8B40210B100207E
:1045D800C3F8B40209B1C3F8B012012183F89C12E0
:1045E8001A70184601F012FA002008BD0220704720
:1045F80019B1C0F8B412002070470220704708B5FE
:1046080001F046FA002008BD08B5D0F8B4322BB145
:104618001B68984700B908BD0220FCE70220FAE7AA
:1046280008B5D0F8B4325B689847002008BD38B5A3
:10463800044600F52A75284600F035F90123C4F828
:104648009432B4F8AE32C4F8983294F8A81201F053
:104658001F03012B0ED0022B11D02BB101F08001CA
:10466800204601F030FA03E02946204600F0CAFA55
:10467800002038BD2946204600F0F8FAF8E7294618
:10468800204600F023FBF3E738B504460D4691BBFE
:104698001346D0F89422032A03D0052A24D00846CA
:1046A80033E0D0F86011D0F8642191420DD9891A0D
:1046B800C0F860118A4206D98AB21946204600F02D
:1046C80037FC284621E092B2F7E7D0F8B4321B69EC
:1046D8001BB190F89C22032A04D0204600F030FC3D
:1046E800284612E09847F8E70021C0F8941201F034
:1046F800EAF9284609E0D0F8B4329B6933B190F85A
:104708009C22032A04D19847002038BD0220FCE7E8
:104718000220FAE738B504460D46002953D113465E
:10472800D0F89422022A0CD0042A00D01AB9802189
:10473800204601F0C8F994F8A032012B3ED0284653
:1047480038BD016A426A91421BD8C169B1FBF2F3D4
:1047580002FB13132BB98A4203D8D0F89832994236
:104768001CD3D4F8B432DB681BB194F89C22032A1A
:1047780021D08021204601F0A6F9204600F0EBFB6D
:10478800D9E78A1A026292B2194600F0BAFB0023EE
:104798001A461946204601F0CDF9CCE70022114609
:1047A80000F0AFFB0021C4F898120B460A462046D9
:1047B80001F0C0F9BFE720469847DAE7002384F8FC
:1047C800A0322846BCE7D0F8B4325B6933B190F820
:1047D8009C22032A04D198470020B1E70220AFE7C2
:1047E8000220ADE770B5044640230022114601F0CF
:1047F80057F90125C4F858514026C4F86461334676
:1048080000228021204601F04BF9A561666284F8F8
:104818009C520023C4F894326360C4F8A432D4F8DC
:10482800B8322BB1D4F8B4325B68002120469847DF
:10483800002070BD01740020704790F89C3280F809
:104848009D32042380F89C320020704790F89C32F7
:10485800042B01D00020704790F89D3280F89C32DC
:10486800F8E708B590F89C32032B01D0002008BD6A
:10487800D0F8B432DB69002BF8D09847F6E7034646
:10488800002002E00130C0B201331A78002AF9D1C1
:10489800704708B54B88012B00D008BDC0F8A4327A
:1048A80000F04EFBF9E70B7803704B7843708B7878
:1048B800CA7803EB022343800B794A7903EB02237E
:1048C80083808B79CA7903EB0223C380704710B5C4
:1048D8000446802101F0F7F80021204601F0F3F8A2
:1048E80010BD30B583B005460C460023ADF8063040
:1048F8004A88130A013B062B00F2A480DFE803F084
:1049080004182CA2A2869300D0F8B0321B680DF1CF
:104918000601007C9847BDF806201AB1E388002BF1
:1049280040F09480E388002B00F09A8003B030BDFB
:10493800037C43B9D0F8B4329B6A0DF1060098475E
:1049480002234370E7E7D0F8B432DB6A0DF10600C2
:10495800984702234370DEE7D2B2052A52D8DFE82F
:1049680002F003101D2A3744D0F8B0325B6823B137
:104978000DF10601007C9847CDE72146FFF7A7FF18
:10498800D4E7D0F8B0329B6823B10DF10601007C62
:104998009847C0E72146FFF79AFFC7E7D0F8B0323B
:1049A800DB6823B10DF10601007C9847B3E7214687
:1049B800FFF78DFFBAE7D0F8B0321B6923B10DF1CC
:1049C8000601007C9847A6E72146FFF780FFADE780
:1049D800D0F8B0325B6923B10DF10601007C98472D
:1049E80099E72146FFF773FFA0E7D0F8B0329B693B
:1049F80023B10DF10601007C98478CE72146FFF7AB
:104A080066FF93E72146FFF762FF8FE7037C33B920
:104A1800D0F8B4325B6B0DF1060098477BE721466E
:104A2800FFF755FF82E7037C43B9D0F8B4321B6B1C
:104A38000DF106009847072343706CE72146FFF7FE
:104A480046FF73E72146FFF742FF6FE79A4228BF08
:104A58001A46ADF806200146284600F045FA61E7F7
:104A6800284600F06DFA61E738B504468B88F3B93B
:104A7800CB88E3B94B887F2B19D803F07F0590F8D2
:104A88009C32032B0CD080F89E52294601F042F844
:104A9800204600F055FA35B1022384F89C3209E02B
:104AA800FFF715FF06E0012384F89C3202E0204658
:104AB800FFF70DFF38BD000038B504460D4689786C
:104AC800284B197001290ED890F89C32022B0ED071
:104AD800032B21D02946FFF7FAFE224B19782046EE
:104AE800FFF79EFD02E02946FFF7F1FE38BD81B1D0
:104AF8004160032380F89C32FFF786FD022803D02B
:104B0800204600F01DFAF1E729462046FFF7DFFEB0
:104B1800ECE700F015FAE9E789B1436899421DD03E
:104B2800D9B2FFF77DFD0F4B197861602046FFF77A
:104B38006BFD02280DD0204600F002FAD6E70223CA
:104B480080F89C324160FFF76BFD204600F0F8F9D1
:104B5800CCE729462046FFF7BAFEC7E700F0F0F990
:104B6800C4E700BF840B002008B5CB88012B0AD10D
:104B780090F89C32022B09D9032B09D10122011D7F
:104B880000F0B2F901E0FFF7A2FE08BD5BB213B96D
:104B9800FFF79DFEF9E70146002341F8083F01228F
:104BA80000F0A2F9F1E708B590F89C32013B022B1E
:104BB80012D8CB88022B0CD10123C360D0F8A432C1
:104BC8000BB10323C360022200F10C0100F08CF941
:104BD80008BDFFF77CFEFBE7FFF779FEF8E708B5AD
:104BE80090F89C32013B022B09D84B88012B00D04E
:104BF80008BD0023C0F8A43200F0A2F9F8E7FFF7D7
:104C080066FEF5E708B50B7803F06003202B05D0A6
:104C1800402B03D043B1FFF75AFE03E0D0F8B4327B
:104C28009B689847002008BD4B78092B1BD8DFE804
:104C380003F011171A141A08051A0E0BFFF751FE84
:104C4800F0E7FFF711FFEDE7FFF736FFEAE7FFF7B9
:104C58008BFFE7E7FFF7A7FFE4E7FFF71AFEE1E7B7
:104C6800FFF7BDFFDEE7FFF732FEDBE738B50546A5
:104C78000C460B7803F06003202B06D0402B04D0A1
:104C88001BB1FFF724FE002038BD95F89C32013B8C
:104C9800022B16D82379012B0ED8D5F8B4329B688D
:104CA800214628469847E388002BECD10028EAD112
:104CB800284600F045F9E6E721462846FFF707FEB3
:104CC800E1E721462846FFF702FEDCE770B5054616
:104CD8008B880C7804F06004202C07D0DAB2402CC2
:104CE80004D05CB1FFF7F3FD002405E0D5F8B43239
:104CF8009B68284698470024204670BD202C09D080
:104D08004E78012E33D0032E0AD0002E55D0FFF74F
:104D1800DEFDF1E7D0F8B4329B6898470446EBE72C
:104D280090F89C32022B04D0032B11D0FFF7CFFD53
:104D3800E2E70AB1802A03D12846FFF7C8FDDBE77E
:104D4800114600F0C0FE8021284600F0BCFED3E7E3
:104D58004B8823B91AB1802A01D0CB881BB12846C9
:104D680000F0EEF8C8E7114600F0ADFEF7E790F85E
:104D78009C32022B04D0032B11D0FFF7A8FDBBE710
:104D88000AB1802A03D12846FFF7A1FDB4E71146EE
:104D980000F099FE8021284600F095FEACE74B888C
:104DA800002BA9D112F07F0F03D1284600F0C8F8D4
:104DB800A2E7114600F08FFEF7E790F89C02022860
:104DC80006D0032829D02846FFF781FD344693E70B
:104DD8000AB1802A13D113F0800F15D102F07F0297
:104DE80002EB8202910001F5A871294404310023E5
:104DF8000B600222284600F077F834467CE7284604
:104E0800FFF765FD344677E702F07F0202EB820286
:104E18009100103129440431E9E75BB2002B1FDB14
:104E280002F00F0000EB800005EB8000D0F858017D
:104E380020B3002B27DB02F07F0303EB83039C00E6
:104E480004F5A8742C4404340AB1802A24D1002320
:104E5800236002222146284600F046F834464BE7F4
:104E680002F00F0000EB800005EB8000806900284D
:104E7800DFD12846FFF72BFD34463DE72846FFF7EC
:104E880026FD344638E702F07F0303EB83039C00DA
:104E980010342C440434D7E71146284600F023FE8A
:104EA80010B101232360D4E700232360D1E7D0B1F8
:104EB80070B50D4616460446FFF7E1FC431C5B003F
:104EC8009BB233802B7003236B70022307E00134FD
:104ED8005A1CD2B2E8540233DBB20021A95420781C
:104EE8000028F4D170BD704708B513460222C0F8F7
:104EF8009422C36103620A46002100F013FE0020D9
:104F080008BD08B513460A46002100F00BFE002034
:104F180008BD08B513460322C0F89422C0F85C31D6
:104F2800C0F860310A46002100F004FE002008BDE8
:104F380008B513460A46002100F0FCFD002008BD14
:104F480008B50423C0F8943200231A46194600F025
:104F5800E9FD002008BD08B50523C0F894320023F8
:104F68001A46194600F0E6FD002008BD10B5D0F835
:104F7800B842D0F8BC325BB194F80002FF2807D0E1
:104F88009B6894F8012221469847FF2384F8003251
:104F9800002010BD432303800048704744000020D0
:104FA8004323038000487047880000204323038080
:104FB80000487047D80000200A2303800048704743
:104FC800CC00002038B50446D0F8B85200F0BAFD3D
:104FD800C5F80C02D4F8B8324BB1D4F8BC32DB684F
:104FE80005F50371D5F804029847002038BD022062
:104FF800FCE710B5D0F8B822D0F8C042F2B101EB06
:10500800810300EB8303DB694BB101EB810C04EBFB
:10501800CC04A46BB3FBF4FC04FB1C3323B10023C6
:10502800C2F81432002010BD01EB810300EB8303AA
:105038000022DA61134600F075FDF3E70220F2E77B
:10504800F0B583B006460C46D0F8B87200238DF848
:105058000730ADF804300B7813F0600527D0202D09
:1050680053D1CA88DAB113F0800F0CD0D0F8BC3213
:105078009B68394660789847E28839463046FFF79A
:1050880033FF002544E04B7887F800328B7987F8A6
:105098000132CA883946FFF73CFF002538E0D0F8CE
:1050A800BC329B68002248789847002530E04F784A
:1050B8000A2F14D00B2F20D01FB1FFF708FC0225B0
:1050C80026E090F89C32032B03D0FFF700FC022562
:1050D8001EE0022201A9FFF707FF3D4618E090F8FD
:1050E8009C32032B03D0FFF7F2FB022510E00122CC
:1050F8000DF10701FFF7F8FE0AE090F89C32032B48
:1051080006D0FFF7E4FB022502E0FFF7E0FB0225EB
:10511800284603B0F0BD38B50446812100F0CBFC29
:105128000025E5620121204600F0C5FCC4F86C5159
:105138008221204600F0BFFC2564D4F8B8324BB178
:10514800D4F8BC325B689847D4F8B80200F004FD84
:10515800C4F8B852002038BD70B50446037CABBB18
:105168004FF400730222812100F09AFC0125E562C8
:105178004FF4007302222946204600F091FCC4F83F
:105188006C51082303228221204600F089FC012368
:1051980023644FF4077000F0DBFC0546C4F8B8023E
:1051A80068B3D4F8BC321B6898470023C5F814329A
:1051B800C5F81832267CCEB94FF40073D5F804220E
:1051C8000121204600F0B6FC304670BD4023022283
:1051D800812100F065FC0125E56240230222294671
:1051E800204600F05DFCC4F86C51CAE74023D5F8AE
:1051F80004220121204600F09DFC0026E4E7012658
:10520800E2E719B1C0F8BC120020704702207047CD
:10521800D0F8B832C3F80812C3F81022002070473B
:10522800D0F8B832C3F8041200207047D0F8B8227A
:10523800A2B108B5D2F814320BB1012008BD012380
:10524800C2F81432D2F810320363B2F81032D2F82E
:105258000822812100F066FC0020EFE70220704759
:10526800D0F8B82292B108B5037C43B94FF4007363
:10527800D2F80422012100F05DFC002008BD402383
:10528800D2F80422012100F055FCF6E7022070470D
:105298000131008991FBF0F300FB131080B27047D5
:1052A80000230380438041600281704738B504467B
:1052B8000D464188FFF7ECFF608063681D5438BDD8
:1052C80038B5044645680188FFF7E2FF0346285CC5
:1052D800238038BD02884088824214BF0020012004
:1052E800704710B504464188FFF7D2FF23889842DB
:1052F80014BF0020012010BD00B5FF2296460AE029
:1053080010F8013B5340084AD25C82EA0E02074972
:1053180011F803E061464B1E1FFA83FC0029EFD108
:1053280042EA0E205DF804FBC88A0008C88B000812
:10533800032911D938B504460D46023989B2FFF759
:10534800DBFF2C4414F8012C14F8023C43EA022336
:10535800834203D0002038BD002070470120FAE7BF
:1053680008B5084600F0A6F808BD0000274B93F8DA
:105378000134002B49D010B5244B5A78244B1B78A4
:105388009A423DD12148B0F802140130FFF7D0FF0E
:10539800002835D01D4B9B78032B0AD01C4A0223CA
:1053A800D37200239372194A82F80134A2F80234A6
:1053B8002AE0164B93F801E093F803C04FEA5C0C1F
:1053C800BEF1100F20D8124B5A889444BCF1C80F74
:1053D8001ADC032111E00D4B58184478481C03448B
:1053E80058780EF1FF3340EA0420C82404FB032355
:1053F800084C24F81300013202319445EBDCCDE768
:10540800054801F027FA022010BD70472405002046
:1054180088240020880B0020C88C000830B583B091
:10542800234CE47A012C29D0022C3AD00CB103B0D9
:1054380030BD1F4C20706180A2800023009301932F
:105448008DF8000003238DF801308DF803108DF8D6
:10545800052006216846FFF74FFF8DF80600C0F3C8
:1054680007208DF807000821684600F0BFF80123DF
:10547800A372E372FBF786FDE080D8E71D46FBF7D1
:1054880081FD0B4BDB88C01AA842D0D3084B9B7A0E
:10549800012BCCD1064B03221A8100229A72DA72B0
:1054A80003E0034B0022DA721A810020BFE700BF35
:1054B8008824002010B582B0344B354A1A605860F1
:1054C80000229A60DA601A610C2159619A61DA61E6
:1054D8001846FCF7C5FD00284FD14FF480622D49CE
:1054E8002D48FFF7DDFE2A4AD36843F01003D36046
:1054F800002211462620FEF72BF82620FEF760F83A
:10550800264B5A6942F001025A615B6903F00103B4
:105518000193019B2248234B03600023436083606F
:105528008022C26003614361202383614FF44053AA
:10553800C361FDF729FD18BB144C194BA3635C62CA
:10554800002211461020FEF703F81020FEF738F865
:105558004FF4807214492046FDF700F898B90B4AB9
:10556800936B19680B6823F004030B601268536986
:1055780023F00103536102B010BDFBF77DFBACE7DC
:10558800FBF77AFBD8E7FBF777FBE8E778270020FB
:1055980000440040BC270020A02600200010024044
:1055A800F02600206C0002409425002038B50446FF
:1055B800EFF3108572B60B48FFF793FE18B185F329
:1055C8001088012038BD21460648FFF76FFE064BBC
:1055D8001A68D36843F04003D36085F3108800202D
:1055E800F0E700BFA026002078270020F8B5054680
:1055F8000F460026B7420BD90024A85DFFF7D6FF57
:1056080020B10134052CF8D90120F8BD0136F1E7A5
:105618000020FAE770B4836B1B685A6892B201687D
:105628005C4B994220D05C4B1B7813B1B2F5807F5C
:1056380070D0594BB3F806C4BCF1FF0F71D8CCF544
:1056480080739BB254490978002900F08680BCF128
:10565800FF0F68D8ACEB020C1FFA8CFC4E48A0F880
:1056680006240021017070E04C4B1B7813B1B2F591
:10567800807F08D0494BB3F80644FF2C0AD8C4F5FC
:1056880080739BB207E0454B012283F80124002276
:105698001A7060E000234149097809B3FF2C07D844
:1056A800A41AA4B23D48A0F806240021017010E015
:1056B800C2F58074A4B2F5E75D1C384AB2F802045A
:1056C800461CA2F80264364EF35C02445370013162
:1056D800ABB28C42F0D8314B012283F801243AE076
:1056E800C3F58076B6B22D4A4FF48071A2F806143D
:1056F80000210CE05C1C294AB2F80204451CA2F8FF
:105708000254274DEB5C024453700131A3B28E4220
:10571800F0D820E0204B012283F8012400221A70DF
:1057280019E000238EE7C2F5807C1FFA8CFC95E710
:105738005C1C194AB2F80204451CA2F80254194D1F
:10574800EB5C024453700131A3B28C45F0D8124B84
:10575800012283F8012470BC7047C3F58075ADB28F
:105768000D4A4FF48071A2F8061400210EE003F1EF
:10577800010C094AB2F80204441CA2F80244094C7C
:10578800E35C0244537001311FFA8CF38D42EED86A
:10579800E1E700BF00380140240500201C0100207B
:1057A800942400209425002008B50268084B9A42EA
:1057B80006D04FF4807207490748FCF7CFFE08BDB2
:1057C8004FF4807205490648FCF7C8FEF7E700BFAA
:1057D80000380140942500207827002094240020D8
:1057E8003427002008B50268104B9A4204D01048AC
:1057F800FFF770FD78B108BD0E48FFF76BFD002874
:10580800F9D10C48FFF75CFD0B49087001220B48E1
:10581800FCF755FCEFE70648FFF752FD084908700A
:1058280001220848FCF74BFCE5E700BF00380140BF
:10583800A026002094260020BC2B0020342700201E
:10584800BD2B00207827002010B588B000230493D2
:1058580005930693079303682C4A934204D02C4A75
:1058680093422BD008B010BD2A4B9A6942F480426B
:105878009A619A6902F480420092009A9A6942F009
:1058880004029A619B6903F004030193019B4FF49E
:105898000073049302230593032307931E4C04A962
:1058A8002046FDF735FA4FF48063049300230593EF
:1058B800069304A92046FDF72BFAD3E7154BDA69BE
:1058C80042F40032DA61DA6902F400320292029A92
:1058D8009A6942F004029A619B6903F004030393F6
:1058E800039B0423049302230593032307930A4C81
:1058F80004A92046FDF70CFA082304930023059316
:10590800069304A92046FDF703FAABE700380140E7
:10591800004400400010024000080140022805D859
:10592800DFE800F0050402000120704702207047FC
:1059380002680E4B9A4200D0704700B583B003F559
:10594800DA33DA6942F40002DA61DB6903F400034E
:105958000193019B002211461420FDF7F9FD142044
:10596800FDF72EFE03B05DF804FB00BF005C0040AD
:1059780008B500F52C71D0F8E802FEF758FE08BD0E
:1059880008B501EB810300EBC303D3F87C21D0F801
:10599800E802FEF779FE08BD08B501EB810300EBCC
:1059A800C303DA6BD0F8E802FEF7B4FE08BD08B509
:1059B800D0F8E802FEF755FF08BD10B50446836825
:1059C800022B09D10121D4F8E802FEF733FFD4F8FD
:1059D800E802FEF707FF10BDFBF74EF9F2E70000FB
:1059E80010B50446D0F8E802FEF727FFA36923B1F3
:1059F800024A136943F00603136110BD00ED00E08D
:105A080008B5D0F8E802FEF721FF08BD10B5044636
:105A18001D48C0F8E842C4F8C0021C4B03600823C4
:105A280043600223836000238361C3610362FBF741
:105A380051FB30BB182300221146D4F8C002FCF7F2
:105A480056FA582300228021D4F8C002FCF74FFAF6
:105A5800C02300228121D4F8C002FCF748FA4FF491
:105A6800887300220121D4F8C002FCF740FA4FF4F1
:105A7800807300228221D4F8C002FCF738FA002093
:105A880010BDFBF7F9F8D5E7C02B0020005C0040FB
:105A980008B5D0F8C002FBF7A9FBFFF73FFF08BD28
:105AA80008B594461A466346D0F8C002FCF7E1F8F8
:105AB800FFF734FF08BD08B5D0F8C002FCF71BF9A2
:105AC800FFF72CFF08BD08B5D0F8C002FCF798F91D
